{
  "_format": "hh-sol-artifact-1",
  "contractName": "ERC20Gateway",
  "sourceName": "contracts/ERC20Gateway.sol",
  "abi": [
    {
      "inputs": [
        {
          "internalType": "string[]",
          "name": "supportedChains_",
          "type": "string[]"
        },
        {
          "internalType": "address",
          "name": "lpPool_",
          "type": "address"
        }
      ],
      "stateMutability": "nonpayable",
      "type": "constructor"
    },
    {
      "anonymous": false,
      "inputs": [
        {
          "indexed": true,
          "internalType": "string",
          "name": "chain",
          "type": "string"
        }
      ],
      "name": "AddSupportedChainEvent",
      "type": "event"
    },
    {
      "anonymous": false,
      "inputs": [
        {
          "indexed": true,
          "internalType": "address",
          "name": "previousOwner",
          "type": "address"
        },
        {
          "indexed": true,
          "internalType": "address",
          "name": "newOwner",
          "type": "address"
        }
      ],
      "name": "OwnershipTransferred",
      "type": "event"
    },
    {
      "anonymous": false,
      "inputs": [
        {
          "indexed": true,
          "internalType": "string",
          "name": "chain",
          "type": "string"
        }
      ],
      "name": "RemoveSupportedChainEvent",
      "type": "event"
    },
    {
      "anonymous": false,
      "inputs": [
        {
          "indexed": true,
          "internalType": "address",
          "name": "newLpPool",
          "type": "address"
        }
      ],
      "name": "SetLiquidPoolAddress",
      "type": "event"
    },
    {
      "anonymous": false,
      "inputs": [
        {
          "indexed": true,
          "internalType": "address",
          "name": "token",
          "type": "address"
        },
        {
          "indexed": true,
          "internalType": "address",
          "name": "recipient",
          "type": "address"
        },
        {
          "indexed": false,
          "internalType": "uint256",
          "name": "amount",
          "type": "uint256"
        }
      ],
      "name": "TransferInEvent",
      "type": "event"
    },
    {
      "anonymous": false,
      "inputs": [
        {
          "indexed": true,
          "internalType": "string",
          "name": "destChain",
          "type": "string"
        },
        {
          "indexed": true,
          "internalType": "address",
          "name": "recipient",
          "type": "address"
        },
        {
          "indexed": true,
          "internalType": "address",
          "name": "tokenOut",
          "type": "address"
        },
        {
          "indexed": false,
          "internalType": "address",
          "name": "tokenIn",
          "type": "address"
        },
        {
          "indexed": false,
          "internalType": "address",
          "name": "sender",
          "type": "address"
        },
        {
          "indexed": false,
          "internalType": "uint256",
          "name": "amount",
          "type": "uint256"
        }
      ],
      "name": "TransferOutEvent",
      "type": "event"
    },
    {
      "inputs": [
        {
          "internalType": "string",
          "name": "chain",
          "type": "string"
        }
      ],
      "name": "addSupportedChain",
      "outputs": [],
      "stateMutability": "nonpayable",
      "type": "function"
    },
    {
      "inputs": [],
      "name": "lpPool",
      "outputs": [
        {
          "internalType": "address",
          "name": "",
          "type": "address"
        }
      ],
      "stateMutability": "view",
      "type": "function"
    },
    {
      "inputs": [],
      "name": "owner",
      "outputs": [
        {
          "internalType": "address",
          "name": "",
          "type": "address"
        }
      ],
      "stateMutability": "view",
      "type": "function"
    },
    {
      "inputs": [],
      "name": "pause",
      "outputs": [
        {
          "internalType": "bool",
          "name": "",
          "type": "bool"
        }
      ],
      "stateMutability": "view",
      "type": "function"
    },
    {
      "inputs": [],
      "name": "pauseGateway",
      "outputs": [],
      "stateMutability": "nonpayable",
      "type": "function"
    },
    {
      "inputs": [
        {
          "internalType": "string",
          "name": "chain",
          "type": "string"
        }
      ],
      "name": "removeSupportedChain",
      "outputs": [],
      "stateMutability": "nonpayable",
      "type": "function"
    },
    {
      "inputs": [],
      "name": "renounceOwnership",
      "outputs": [],
      "stateMutability": "nonpayable",
      "type": "function"
    },
    {
      "inputs": [],
      "name": "resumeGateway",
      "outputs": [],
      "stateMutability": "nonpayable",
      "type": "function"
    },
    {
      "inputs": [
        {
          "internalType": "address",
          "name": "newLpPool",
          "type": "address"
        }
      ],
      "name": "setLiquidAddress",
      "outputs": [],
      "stateMutability": "nonpayable",
      "type": "function"
    },
    {
      "inputs": [
        {
          "internalType": "string",
          "name": "",
          "type": "string"
        }
      ],
      "name": "supportedChains",
      "outputs": [
        {
          "internalType": "bool",
          "name": "",
          "type": "bool"
        }
      ],
      "stateMutability": "view",
      "type": "function"
    },
    {
      "inputs": [
        {
          "internalType": "address",
          "name": "token",
          "type": "address"
        },
        {
          "internalType": "address",
          "name": "recipient",
          "type": "address"
        },
        {
          "internalType": "uint256",
          "name": "amount",
          "type": "uint256"
        }
      ],
      "name": "transferIn",
      "outputs": [],
      "stateMutability": "nonpayable",
      "type": "function"
    },
    {
      "inputs": [
        {
          "internalType": "address",
          "name": "newOwner",
          "type": "address"
        }
      ],
      "name": "transferLiquidityOwnership",
      "outputs": [],
      "stateMutability": "nonpayable",
      "type": "function"
    },
    {
      "inputs": [
        {
          "internalType": "string",
          "name": "destChain",
          "type": "string"
        },
        {
          "internalType": "address",
          "name": "recipient",
          "type": "address"
        },
        {
          "internalType": "address",
          "name": "tokenOut",
          "type": "address"
        },
        {
          "internalType": "address",
          "name": "tokenIn",
          "type": "address"
        },
        {
          "internalType": "uint256",
          "name": "amount",
          "type": "uint256"
        }
      ],
      "name": "transferOut",
      "outputs": [],
      "stateMutability": "nonpayable",
      "type": "function"
    },
    {
      "inputs": [
        {
          "internalType": "address",
          "name": "newOwner",
          "type": "address"
        }
      ],
      "name": "transferOwnership",
      "outputs": [],
      "stateMutability": "nonpayable",
      "type": "function"
    }
  ],
  "bytecode": "0x60806040523480156200001157600080fd5b50604051620023f9380380620023f98339818101604052810190620000379190620004fe565b620000576200004b6200013460201b60201c565b6200013c60201b60201c565b60008060146101000a81548160ff02191690831515021790555060005b8251811015620000ea576001600284838151811062000098576200009762000564565b5b6020026020010151604051620000af9190620005e0565b908152602001604051809103902060006101000a81548160ff0219169083151502179055508080620000e19062000632565b91505062000074565b5080600160006101000a81548173ffffffffffffffffffffffffffffffffffffffff021916908373ffffffffffffffffffffffffffffffffffffffff160217905550505062000680565b600033905090565b60008060009054906101000a900473ffffffffffffffffffffffffffffffffffffffff169050816000806101000a81548173ffffffffffffffffffffffffffffffffffffffff021916908373ffffffffffffffffffffffffffffffffffffffff1602179055508173ffffffffffffffffffffffffffffffffffffffff168173ffffffffffffffffffffffffffffffffffffffff167f8be0079c531659141344cd1fd0a4f28419497f9722a3daafe3b4186f6b6457e060405160405180910390a35050565b6000604051905090565b600080fd5b600080fd5b600080fd5b6000601f19601f8301169050919050565b7f4e487b7100000000000000000000000000000000000000000000000000000000600052604160045260246000fd5b620002648262000219565b810181811067ffffffffffffffff821117156200028657620002856200022a565b5b80604052505050565b60006200029b62000200565b9050620002a9828262000259565b919050565b600067ffffffffffffffff821115620002cc57620002cb6200022a565b5b602082029050602081019050919050565b600080fd5b600080fd5b600067ffffffffffffffff8211156200030557620003046200022a565b5b620003108262000219565b9050602081019050919050565b60005b838110156200033d57808201518184015260208101905062000320565b838111156200034d576000848401525b50505050565b60006200036a6200036484620002e7565b6200028f565b905082815260208101848484011115620003895762000388620002e2565b5b620003968482856200031d565b509392505050565b600082601f830112620003b657620003b562000214565b5b8151620003c884826020860162000353565b91505092915050565b6000620003e8620003e284620002ae565b6200028f565b905080838252602082019050602084028301858111156200040e576200040d620002dd565b5b835b818110156200045c57805167ffffffffffffffff81111562000437576200043662000214565b5b8086016200044689826200039e565b8552602085019450505060208101905062000410565b5050509392505050565b600082601f8301126200047e576200047d62000214565b5b815162000490848260208601620003d1565b91505092915050565b600073ffffffffffffffffffffffffffffffffffffffff82169050919050565b6000620004c68262000499565b9050919050565b620004d881620004b9565b8114620004e457600080fd5b50565b600081519050620004f881620004cd565b92915050565b600080604083850312156200051857620005176200020a565b5b600083015167ffffffffffffffff8111156200053957620005386200020f565b5b620005478582860162000466565b92505060206200055a85828601620004e7565b9150509250929050565b7f4e487b7100000000000000000000000000000000000000000000000000000000600052603260045260246000fd5b600081519050919050565b600081905092915050565b6000620005b68262000593565b620005c281856200059e565b9350620005d48185602086016200031d565b80840191505092915050565b6000620005ee8284620005a9565b915081905092915050565b7f4e487b7100000000000000000000000000000000000000000000000000000000600052601160045260246000fd5b6000819050919050565b60006200063f8262000628565b91507fffffffffffffffffffffffffffffffffffffffffffffffffffffffffffffffff821415620006755762000674620005f9565b5b600182019050919050565b611d6980620006906000396000f3fe608060405234801561001057600080fd5b50600436106100ea5760003560e01c806399e038f71161008c578063e4652f4911610066578063e4652f49146101eb578063e5eb8a8914610207578063f2fde38b14610223578063fab1f9d41461023f576100ea565b806399e038f7146101bb578063d0a26451146101d7578063df773a74146101e1576100ea565b80636c30aaa2116100c85780636c30aaa214610145578063715018a6146101755780638456cb591461017f5780638da5cb5b1461019d576100ea565b80633737bcb4146100ef578063465600231461010d5780635b8948f314610129575b600080fd5b6100f761025b565b604051610104919061129f565b60405180910390f35b61012760048036038101906101229190611414565b610281565b005b610143600480360381019061013e9190611489565b610379565b005b61015f600480360381019061015a9190611414565b61047c565b60405161016c91906114d1565b60405180910390f35b61017d6104b2565b005b61018761053a565b60405161019491906114d1565b60405180910390f35b6101a561054d565b6040516101b2919061129f565b60405180910390f35b6101d560048036038101906101d09190611489565b610576565b005b6101df610682565b005b6101e9610770565b005b61020560048036038101906102009190611522565b61085f565b005b610221600480360381019061021c9190611414565b610b10565b005b61023d60048036038101906102389190611489565b610c08565b005b61025960048036038101906102549190611575565b610d00565b005b600160009054906101000a900473ffffffffffffffffffffffffffffffffffffffff1681565b610289610e9c565b73ffffffffffffffffffffffffffffffffffffffff166102a761054d565b73ffffffffffffffffffffffffffffffffffffffff16146102fd576040517f08c379a00000000000000000000000000000000000000000000000000000000081526004016102f490611669565b60405180910390fd5b600060028260405161030f9190611703565b908152602001604051809103902060006101000a81548160ff021916908315150217905550806040516103429190611703565b60405180910390207ff300fb61ffb72cae02d1183cefa3fd9604388876c9dae6eab266d6a2a69ca63560405160405180910390a250565b610381610e9c565b73ffffffffffffffffffffffffffffffffffffffff1661039f61054d565b73ffffffffffffffffffffffffffffffffffffffff16146103f5576040517f08c379a00000000000000000000000000000000000000000000000000000000081526004016103ec90611669565b60405180910390fd5b80600160006101000a81548173ffffffffffffffffffffffffffffffffffffffff021916908373ffffffffffffffffffffffffffffffffffffffff1602179055508073ffffffffffffffffffffffffffffffffffffffff167f5f45b5214c6238b9219374183843360ca6fa9f8bce8f39c211452057a09ef03b60405160405180910390a250565b6002818051602081018201805184825260208301602085012081835280955050505050506000915054906101000a900460ff1681565b6104ba610e9c565b73ffffffffffffffffffffffffffffffffffffffff166104d861054d565b73ffffffffffffffffffffffffffffffffffffffff161461052e576040517f08c379a000000000000000000000000000000000000000000000000000000000815260040161052590611669565b60405180910390fd5b6105386000610ea4565b565b600060149054906101000a900460ff1681565b60008060009054906101000a900473ffffffffffffffffffffffffffffffffffffffff16905090565b61057e610e9c565b73ffffffffffffffffffffffffffffffffffffffff1661059c61054d565b73ffffffffffffffffffffffffffffffffffffffff16146105f2576040517f08c379a00000000000000000000000000000000000000000000000000000000081526004016105e990611669565b60405180910390fd5b600160009054906101000a900473ffffffffffffffffffffffffffffffffffffffff1673ffffffffffffffffffffffffffffffffffffffff1663a6f9dae1826040518263ffffffff1660e01b815260040161064d919061129f565b600060405180830381600087803b15801561066757600080fd5b505af115801561067b573d6000803e3d6000fd5b5050505050565b61068a610e9c565b73ffffffffffffffffffffffffffffffffffffffff166106a861054d565b73ffffffffffffffffffffffffffffffffffffffff16146106fe576040517f08c379a00000000000000000000000000000000000000000000000000000000081526004016106f590611669565b60405180910390fd5b60011515600060149054906101000a900460ff16151514610754576040517f08c379a000000000000000000000000000000000000000000000000000000000815260040161074b90611766565b60405180910390fd5b60008060146101000a81548160ff021916908315150217905550565b610778610e9c565b73ffffffffffffffffffffffffffffffffffffffff1661079661054d565b73ffffffffffffffffffffffffffffffffffffffff16146107ec576040517f08c379a00000000000000000000000000000000000000000000000000000000081526004016107e390611669565b60405180910390fd5b60001515600060149054906101000a900460ff16151514610842576040517f08c379a0000000000000000000000000000000000000000000000000000000008152600401610839906117d2565b60405180910390fd5b6001600060146101000a81548160ff021916908315150217905550565b610867610e9c565b73ffffffffffffffffffffffffffffffffffffffff1661088561054d565b73ffffffffffffffffffffffffffffffffffffffff16146108db576040517f08c379a00000000000000000000000000000000000000000000000000000000081526004016108d290611669565b60405180910390fd5b60001515600060149054906101000a900460ff16151514610931576040517f08c379a00000000000000000000000000000000000000000000000000000000081526004016109289061183e565b60405180910390fd5b60008373ffffffffffffffffffffffffffffffffffffffff166370a08231600160009054906101000a900473ffffffffffffffffffffffffffffffffffffffff166040518263ffffffff1660e01b815260040161098e919061129f565b602060405180830381865afa1580156109ab573d6000803e3d6000fd5b505050506040513d601f19601f820116820180604052508101906109cf9190611873565b905081811015610a14576040517f08c379a0000000000000000000000000000000000000000000000000000000008152600401610a0b90611912565b60405180910390fd5b600160009054906101000a900473ffffffffffffffffffffffffffffffffffffffff1673ffffffffffffffffffffffffffffffffffffffff1663beabacc88585856040518463ffffffff1660e01b8152600401610a7393929190611941565b600060405180830381600087803b158015610a8d57600080fd5b505af1158015610aa1573d6000803e3d6000fd5b505050508273ffffffffffffffffffffffffffffffffffffffff168473ffffffffffffffffffffffffffffffffffffffff167fb7275fa1625b051238c95d6354c70b3ab71046400d703334de68a46923e6274c84604051610b029190611978565b60405180910390a350505050565b610b18610e9c565b73ffffffffffffffffffffffffffffffffffffffff16610b3661054d565b73ffffffffffffffffffffffffffffffffffffffff1614610b8c576040517f08c379a0000000000000000000000000000000000000000000000000000000008152600401610b8390611669565b60405180910390fd5b6001600282604051610b9e9190611703565b908152602001604051809103902060006101000a81548160ff02191690831515021790555080604051610bd19190611703565b60405180910390207f7fa5b6d08b213cf08846553aed6553e01273440fcfb334111e8376b02ed434a760405160405180910390a250565b610c10610e9c565b73ffffffffffffffffffffffffffffffffffffffff16610c2e61054d565b73ffffffffffffffffffffffffffffffffffffffff1614610c84576040517f08c379a0000000000000000000000000000000000000000000000000000000008152600401610c7b90611669565b60405180910390fd5b600073ffffffffffffffffffffffffffffffffffffffff168173ffffffffffffffffffffffffffffffffffffffff161415610cf4576040517f08c379a0000000000000000000000000000000000000000000000000000000008152600401610ceb90611a05565b60405180910390fd5b610cfd81610ea4565b50565b60001515600060149054906101000a900460ff16151514610d56576040517f08c379a0000000000000000000000000000000000000000000000000000000008152600401610d4d9061183e565b60405180910390fd5b60011515600286604051610d6a9190611703565b908152602001604051809103902060009054906101000a900460ff16151514610dc8576040517f08c379a0000000000000000000000000000000000000000000000000000000008152600401610dbf90611a71565b60405180910390fd5b610e1733600160009054906101000a900473ffffffffffffffffffffffffffffffffffffffff16838673ffffffffffffffffffffffffffffffffffffffff16610f68909392919063ffffffff16565b8273ffffffffffffffffffffffffffffffffffffffff168473ffffffffffffffffffffffffffffffffffffffff1686604051610e539190611703565b60405180910390207e6b0e4d260e96ab50544d327c9b2747d2c9032870e6c00d5479ac75d0663518853386604051610e8d93929190611941565b60405180910390a45050505050565b600033905090565b60008060009054906101000a900473ffffffffffffffffffffffffffffffffffffffff169050816000806101000a81548173ffffffffffffffffffffffffffffffffffffffff021916908373ffffffffffffffffffffffffffffffffffffffff1602179055508173ffffffffffffffffffffffffffffffffffffffff168173ffffffffffffffffffffffffffffffffffffffff167f8be0079c531659141344cd1fd0a4f28419497f9722a3daafe3b4186f6b6457e060405160405180910390a35050565b610feb846323b872dd60e01b858585604051602401610f8993929190611941565b604051602081830303815290604052907bffffffffffffffffffffffffffffffffffffffffffffffffffffffff19166020820180517bffffffffffffffffffffffffffffffffffffffffffffffffffffffff8381831617835250505050610ff1565b50505050565b6000611053826040518060400160405280602081526020017f5361666545524332303a206c6f772d6c6576656c2063616c6c206661696c65648152508573ffffffffffffffffffffffffffffffffffffffff166110b89092919063ffffffff16565b90506000815111156110b357808060200190518101906110739190611abd565b6110b2576040517f08c379a00000000000000000000000000000000000000000000000000000000081526004016110a990611b5c565b60405180910390fd5b5b505050565b60606110c784846000856110d0565b90509392505050565b606082471015611115576040517f08c379a000000000000000000000000000000000000000000000000000000000815260040161110c90611bee565b60405180910390fd5b61111e856111e4565b61115d576040517f08c379a000000000000000000000000000000000000000000000000000000000815260040161115490611c5a565b60405180910390fd5b6000808673ffffffffffffffffffffffffffffffffffffffff1685876040516111869190611cc1565b60006040518083038185875af1925050503d80600081146111c3576040519150601f19603f3d011682016040523d82523d6000602084013e6111c8565b606091505b50915091506111d88282866111f7565b92505050949350505050565b600080823b905060008111915050919050565b6060831561120757829050611257565b60008351111561121a5782518084602001fd5b816040517f08c379a000000000000000000000000000000000000000000000000000000000815260040161124e9190611d11565b60405180910390fd5b9392505050565b600073ffffffffffffffffffffffffffffffffffffffff82169050919050565b60006112898261125e565b9050919050565b6112998161127e565b82525050565b60006020820190506112b46000830184611290565b92915050565b6000604051905090565b600080fd5b600080fd5b600080fd5b600080fd5b6000601f19601f8301169050919050565b7f4e487b7100000000000000000000000000000000000000000000000000000000600052604160045260246000fd5b611321826112d8565b810181811067ffffffffffffffff821117156113405761133f6112e9565b5b80604052505050565b60006113536112ba565b905061135f8282611318565b919050565b600067ffffffffffffffff82111561137f5761137e6112e9565b5b611388826112d8565b9050602081019050919050565b82818337600083830152505050565b60006113b76113b284611364565b611349565b9050828152602081018484840111156113d3576113d26112d3565b5b6113de848285611395565b509392505050565b600082601f8301126113fb576113fa6112ce565b5b813561140b8482602086016113a4565b91505092915050565b60006020828403121561142a576114296112c4565b5b600082013567ffffffffffffffff811115611448576114476112c9565b5b611454848285016113e6565b91505092915050565b6114668161127e565b811461147157600080fd5b50565b6000813590506114838161145d565b92915050565b60006020828403121561149f5761149e6112c4565b5b60006114ad84828501611474565b91505092915050565b60008115159050919050565b6114cb816114b6565b82525050565b60006020820190506114e660008301846114c2565b92915050565b6000819050919050565b6114ff816114ec565b811461150a57600080fd5b50565b60008135905061151c816114f6565b92915050565b60008060006060848603121561153b5761153a6112c4565b5b600061154986828701611474565b935050602061155a86828701611474565b925050604061156b8682870161150d565b9150509250925092565b600080600080600060a08688031215611591576115906112c4565b5b600086013567ffffffffffffffff8111156115af576115ae6112c9565b5b6115bb888289016113e6565b95505060206115cc88828901611474565b94505060406115dd88828901611474565b93505060606115ee88828901611474565b92505060806115ff8882890161150d565b9150509295509295909350565b600082825260208201905092915050565b7f4f776e61626c653a2063616c6c6572206973206e6f7420746865206f776e6572600082015250565b600061165360208361160c565b915061165e8261161d565b602082019050919050565b6000602082019050818103600083015261168281611646565b9050919050565b600081519050919050565b600081905092915050565b60005b838110156116bd5780820151818401526020810190506116a2565b838111156116cc576000848401525b50505050565b60006116dd82611689565b6116e78185611694565b93506116f781856020860161169f565b80840191505092915050565b600061170f82846116d2565b915081905092915050565b7f47617465776179206973206e6f742070617573656420616c7265616479000000600082015250565b6000611750601d8361160c565b915061175b8261171a565b602082019050919050565b6000602082019050818103600083015261177f81611743565b9050919050565b7f476174657761792069732070617573656420616c726561647900000000000000600082015250565b60006117bc60198361160c565b91506117c782611786565b602082019050919050565b600060208201905081810360008301526117eb816117af565b9050919050565b7f4761746577617920697320706175736564000000000000000000000000000000600082015250565b600061182860118361160c565b9150611833826117f2565b602082019050919050565b600060208201905081810360008301526118578161181b565b9050919050565b60008151905061186d816114f6565b92915050565b600060208284031215611889576118886112c4565b5b60006118978482850161185e565b91505092915050565b7f476174657761792062616c616e6365206973206c657373207468616e2072657160008201527f756972656420616d6f756e740000000000000000000000000000000000000000602082015250565b60006118fc602c8361160c565b9150611907826118a0565b604082019050919050565b6000602082019050818103600083015261192b816118ef565b9050919050565b61193b816114ec565b82525050565b60006060820190506119566000830186611290565b6119636020830185611290565b6119706040830184611932565b949350505050565b600060208201905061198d6000830184611932565b92915050565b7f4f776e61626c653a206e6577206f776e657220697320746865207a65726f206160008201527f6464726573730000000000000000000000000000000000000000000000000000602082015250565b60006119ef60268361160c565b91506119fa82611993565b604082019050919050565b60006020820190508181036000830152611a1e816119e2565b9050919050565b7f64657374436861696e206973206e6f7420737570706f72746564000000000000600082015250565b6000611a5b601a8361160c565b9150611a6682611a25565b602082019050919050565b60006020820190508181036000830152611a8a81611a4e565b9050919050565b611a9a816114b6565b8114611aa557600080fd5b50565b600081519050611ab781611a91565b92915050565b600060208284031215611ad357611ad26112c4565b5b6000611ae184828501611aa8565b91505092915050565b7f5361666545524332303a204552433230206f7065726174696f6e20646964206e60008201527f6f74207375636365656400000000000000000000000000000000000000000000602082015250565b6000611b46602a8361160c565b9150611b5182611aea565b604082019050919050565b60006020820190508181036000830152611b7581611b39565b9050919050565b7f416464726573733a20696e73756666696369656e742062616c616e636520666f60008201527f722063616c6c0000000000000000000000000000000000000000000000000000602082015250565b6000611bd860268361160c565b9150611be382611b7c565b604082019050919050565b60006020820190508181036000830152611c0781611bcb565b9050919050565b7f416464726573733a2063616c6c20746f206e6f6e2d636f6e7472616374000000600082015250565b6000611c44601d8361160c565b9150611c4f82611c0e565b602082019050919050565b60006020820190508181036000830152611c7381611c37565b9050919050565b600081519050919050565b600081905092915050565b6000611c9b82611c7a565b611ca58185611c85565b9350611cb581856020860161169f565b80840191505092915050565b6000611ccd8284611c90565b915081905092915050565b6000611ce382611689565b611ced818561160c565b9350611cfd81856020860161169f565b611d06816112d8565b840191505092915050565b60006020820190508181036000830152611d2b8184611cd8565b90509291505056fea264697066735822122079212887f1fba4eff8fdedfdde68364726f76bed330035eefb82c2b377f1968a64736f6c634300080a0033",
  "linkReferences": {},
  "deployedLinkReferences": {}
}